:040000003FEF3FF09F
:107E1C00C5CF2BF01F0E2B16D8A4FAD7C7A412006F
:027E2C00F7D786
:107E2F004D4943524F434849503A4932435F534CAF
:107E3F004156450000C6500F0B080AD8B404D0C6EF
:107E4F00500F0B0B0AD8B4C586C7A0FED7C9501266
:107E5F00002C6E3F0EC716000EC66E000EC56E2CA0
:107E6F0050C6122B50C71294869488C68A12002FC0
:107E7F000EF66E7E0EF76E000EF86E00EE16F01018
:107E8F00EE15F00900F5CFEEFFE550E150FAE100F5
:107E9F00EE01F0150EEE6AE806FDE10001B1EF3FCD
:107EAF00F020D0C6A60DD02DC0D9FF2EC0DAFFDF2F
:107EBF005082EC3FF02F6E2F50D8B411D02F5012AC
:107ECF00009E962DC0D9FF2EC0DAFFDF50C96EC6B7
:107EDF00889EA6FED7C6B8C7B002D0FE0E12002DE0
:107EEF004A2E2A2DC0D9FF2EC0DAFFDF50D8A4D9D1
:107EFF00D7000E12002C6E2CC0C9FFC6AE02D0FFE9
:107F0F000E1200C6500F0B080AD8B40FD0C6500F70
:107F1F000B0B0AD8B40AD0C6889EA6FED7C7A4C733
:107F2F00B002D0FE0E1200000E1200C6500F0B084A
:107F3F000AD8B405D0C6500F0B0B0AD8A41200C72D
:107F4F00B0FED70EEC3FF0C5AC02D0FE0E12000013
:107F5F000E1200000E316E000E326E000E336E00E8
:107F6F000E346E140E346401D00CD03450010D0158
:107F7F000EF324D96E000EF420DA6E000EDF6E348D
:107F8F002AF0D7C69A060E316E800E326E32C02B93
:107F9F00F0315030EC3FF0A20EC86EC7A0FED722D2
:107FAF00EC3FF0306EC7A0FED73350010D010EF33A
:107FBF0024D96E000EF420DA6E22EC3FF0DF6E3320
:107FCF002A140E3318D8A4EED7C7A6FED7C7A0FE23
:107FDF00D722EC3FF0306EC7A409D0160E2D6E00DD
:107FEF000E2E6E58EC3FF00009D8A4F7D7C69AFFB3
:017FFF00D7AA
:020000040020DA
:08000000FFFFFFFFFFFFFFFF00
:020000040030CA
:0E000000FF881F00FF8381FF0FC00FE00F403D
:00000001FF
