:0400000035EF3FF0A9
:107E0800C5CF2BF01F0E2B16D8A4FAD7C7A4120083
:027E1800F7D79A
:107E1B004D4943524F434849503A4932435F534CC3
:107E2B004156450000C6500F0B080AD8B404D0C603
:107E3B00500F0B0B0AD8B4C586C7A0FED7C950127A
:107E4B00002C6E3F0EC716000EC66E000EC56E2CB4
:107E5B0050C6122B50C71294869488C68A12001BE8
:107E6B000EF66E7E0EF76E000EF86E00EE16F0102C
:107E7B00EE15F00900F5CFEEFFE550E150FAE10009
:107E8B00EE01F0150EEE6AE806FDE10001A7EF3FEB
:107E9B00F020D0C6A60DD02DC0D9FF2EC0DAFFDF43
:107EAB005078EC3FF02F6E2F50D8B411D02F5012CA
:107EBB00009E962DC0D9FF2EC0DAFFDF50C96EC6CB
:107ECB00889EA6FED7C6B8C7B002D0FE0E12002DF4
:107EDB004A2E2A2DC0D9FF2EC0DAFFDF50D8A4D9E5
:107EEB00D7000E12002C6E2CC0C9FFC6AE02D0FFFD
:107EFB000E1200C6500F0B080AD8B40FD0C6500F85
:107F0B000B0B0AD8B40AD0C6889EA6FED7C7A4C747
:107F1B00B002D0FE0E1200000E1200C6500F0B085E
:107F2B000AD8B405D0C6500F0B0B0AD8A41200C741
:107F3B00B0FED704EC3FF0C5AC02D0FE0E12000031
:107F4B000E1200000E346E000E356E000E306E00F9
:107F5B000E316E000E326E000E336E000E376E0059
:107F6B000E366E000E376E140E376401D00CD03700
:107F7B0050010D010EF324D96E000EF420DA6E00C1
:107F8B000EDF6E372AF0D7C69A060E346E800E358A
:107F9B006E35C02BF0345026EC3FF0A20EC86EC7E6
:107FAB00A0FED718EC3FF0336EC7A0FED7365001BA
:107FBB000D010EF324D96E000EF420DA6E18EC3F8F
:107FCB00F0DF6E362A140E3618D8A4EED7C7A6FEED
:107FDB00D7C7A0FED718EC3FF0336EC7A409D01655
:107FEB000E2D6E000E2E6E4EEC3FF00009D8A4F74E
:057FFB00D7C69AFFD774
:020000040020DA
:08000000FFFFFFFFFFFFFFFF00
:020000040030CA
:0E000000FF881F00FF8381FF0FC00FE00F403D
:00000001FF
